{
  "contractName": "Remember43",
  "abi": [
    {
      "constant": false,
      "inputs": [
        {
          "name": "_name",
          "type": "string"
        },
        {
          "name": "_addr",
          "type": "string"
        }
      ],
      "name": "addVictim",
      "outputs": [],
      "payable": false,
      "stateMutability": "nonpayable",
      "type": "function"
    },
    {
      "constant": false,
      "inputs": [
        {
          "name": "_idx",
          "type": "uint16"
        },
        {
          "name": "_name",
          "type": "string"
        },
        {
          "name": "_addr",
          "type": "string"
        }
      ],
      "name": "modifyVictim",
      "outputs": [],
      "payable": false,
      "stateMutability": "nonpayable",
      "type": "function"
    },
    {
      "constant": false,
      "inputs": [
        {
          "name": "_addr",
          "type": "address"
        },
        {
          "name": "_state",
          "type": "bool"
        }
      ],
      "name": "setContributor",
      "outputs": [],
      "payable": false,
      "stateMutability": "nonpayable",
      "type": "function"
    },
    {
      "inputs": [],
      "payable": false,
      "stateMutability": "nonpayable",
      "type": "constructor"
    },
    {
      "anonymous": false,
      "inputs": [
        {
          "indexed": true,
          "name": "contributor",
          "type": "address"
        },
        {
          "indexed": false,
          "name": "state",
          "type": "bool"
        }
      ],
      "name": "contributorSet",
      "type": "event"
    },
    {
      "anonymous": false,
      "inputs": [
        {
          "indexed": false,
          "name": "idx",
          "type": "uint16"
        },
        {
          "indexed": false,
          "name": "name",
          "type": "string"
        },
        {
          "indexed": false,
          "name": "addr",
          "type": "string"
        },
        {
          "indexed": false,
          "name": "createTime",
          "type": "uint256"
        }
      ],
      "name": "victimAdded",
      "type": "event"
    },
    {
      "anonymous": false,
      "inputs": [
        {
          "indexed": false,
          "name": "idx",
          "type": "uint16"
        },
        {
          "indexed": false,
          "name": "name",
          "type": "string"
        },
        {
          "indexed": false,
          "name": "addr",
          "type": "string"
        },
        {
          "indexed": false,
          "name": "createTime",
          "type": "uint256"
        }
      ],
      "name": "victimModified",
      "type": "event"
    },
    {
      "constant": true,
      "inputs": [
        {
          "name": "_idx",
          "type": "uint16"
        }
      ],
      "name": "getVictim",
      "outputs": [
        {
          "name": "",
          "type": "uint16"
        },
        {
          "name": "",
          "type": "string"
        },
        {
          "name": "",
          "type": "string"
        }
      ],
      "payable": false,
      "stateMutability": "view",
      "type": "function"
    },
    {
      "constant": true,
      "inputs": [
        {
          "name": "",
          "type": "address"
        }
      ],
      "name": "isContributor",
      "outputs": [
        {
          "name": "",
          "type": "bool"
        }
      ],
      "payable": false,
      "stateMutability": "view",
      "type": "function"
    },
    {
      "constant": true,
      "inputs": [
        {
          "name": "",
          "type": "uint16"
        }
      ],
      "name": "victims",
      "outputs": [
        {
          "name": "idx",
          "type": "uint16"
        },
        {
          "name": "name",
          "type": "string"
        },
        {
          "name": "addr",
          "type": "string"
        },
        {
          "name": "createTime",
          "type": "uint256"
        }
      ],
      "payable": false,
      "stateMutability": "view",
      "type": "function"
    },
    {
      "constant": true,
      "inputs": [],
      "name": "victimsCount",
      "outputs": [
        {
          "name": "",
          "type": "uint16"
        }
      ],
      "payable": false,
      "stateMutability": "view",
      "type": "function"
    }
  ],
  "bytecode": "0x608060405234801561001057600080fd5b506040516020806111fa8339810180604052602081101561003057600080fd5b8101908080519060200190929190505050336002806101000a81548173ffffffffffffffffffffffffffffffffffffffff021916908373ffffffffffffffffffffffffffffffffffffffff1602179055508060038190555050611162806100986000396000f3fe608060405260043610610083576000357c0100000000000000000000000000000000000000000000000000000000900463ffffffff1680631d0d35f51461008857806331adba2f146100f15780635059d25a146101245780639d3de34314610181578063c9eebd9d146102e0578063cf772c7d1461044d578063d1ae2f0114610587575b600080fd5b34801561009457600080fd5b506100d7600480360360208110156100ab57600080fd5b81019080803573ffffffffffffffffffffffffffffffffffffffff1690602001909291905050506106ba565b604051808215151515815260200191505060405180910390f35b3480156100fd57600080fd5b506101066106da565b604051808261ffff1661ffff16815260200191505060405180910390f35b34801561013057600080fd5b5061017f6004803603604081101561014757600080fd5b81019080803573ffffffffffffffffffffffffffffffffffffffff1690602001909291908035151590602001909291905050506106ee565b005b34801561018d57600080fd5b506102de600480360360408110156101a457600080fd5b81019080803590602001906401000000008111156101c157600080fd5b8201836020820111156101d357600080fd5b803590602001918460018302840111640100000000831117156101f557600080fd5b91908080601f016020809104026020016040519081016040528093929190818152602001838380828437600081840152601f19601f8201169050808301925050505050505091929192908035906020019064010000000081111561025857600080fd5b82018360208201111561026a57600080fd5b8035906020019184600183028401116401000000008311171561028c57600080fd5b91908080601f016020809104026020016040519081016040528093929190818152602001838380828437600081840152601f19601f820116905080830192505050505050509192919290505050610842565b005b3480156102ec57600080fd5b5061044b6004803603606081101561030357600080fd5b81019080803561ffff1690602001909291908035906020019064010000000081111561032e57600080fd5b82018360208201111561034057600080fd5b8035906020019184600183028401116401000000008311171561036257600080fd5b91908080601f016020809104026020016040519081016040528093929190818152602001838380828437600081840152601f19601f820116905080830192505050505050509192919290803590602001906401000000008111156103c557600080fd5b8201836020820111156103d757600080fd5b803590602001918460018302840111640100000000831117156103f957600080fd5b91908080601f016020809104026020016040519081016040528093929190818152602001838380828437600081840152601f19601f820116905080830192505050505050509192919290505050610bc4565b005b34801561045957600080fd5b5061048a6004803603602081101561047057600080fd5b81019080803561ffff169060200190929190505050610cb4565b604051808561ffff1661ffff1681526020018060200180602001848152602001838103835286818151815260200191508051906020019080838360005b838110156104e25780820151818401526020810190506104c7565b50505050905090810190601f16801561050f5780820380516001836020036101000a031916815260200191505b50838103825285818151815260200191508051906020019080838360005b8381101561054857808201518184015260208101905061052d565b50505050905090810190601f1680156105755780820380516001836020036101000a031916815260200191505b50965050505050505060405180910390f35b34801561059357600080fd5b506105c4600480360360208110156105aa57600080fd5b81019080803561ffff169060200190929190505050610e22565b604051808461ffff1661ffff1681526020018060200180602001838103835285818151815260200191508051906020019080838360005b838110156106165780820151818401526020810190506105fb565b50505050905090810190601f1680156106435780820380516001836020036101000a031916815260200191505b50838103825284818151815260200191508051906020019080838360005b8381101561067c578082015181840152602081019050610661565b50505050905090810190601f1680156106a95780820380516001836020036101000a031916815260200191505b509550505050505060405180910390f35b60016020528060005260406000206000915054906101000a900460ff1681565b600260009054906101000a900461ffff1681565b3373ffffffffffffffffffffffffffffffffffffffff166002809054906101000a900473ffffffffffffffffffffffffffffffffffffffff1673ffffffffffffffffffffffffffffffffffffffff1614151561074957600080fd5b80600160008473ffffffffffffffffffffffffffffffffffffffff1673ffffffffffffffffffffffffffffffffffffffff16815260200190815260200160002060006101000a81548160ff0219169083151502179055508173ffffffffffffffffffffffffffffffffffffffff167f2143af776ed5abe616a0251dc8dbfda9af8047efb71ab448a0238cf058302835600160008573ffffffffffffffffffffffffffffffffffffffff1673ffffffffffffffffffffffffffffffffffffffff16815260200190815260200160002060009054906101000a900460ff16604051808215151515815260200191505060405180910390a25050565b600160003373ffffffffffffffffffffffffffffffffffffffff1673ffffffffffffffffffffffffffffffffffffffff16815260200190815260200160002060009054906101000a900460ff16151561089a57600080fd5b6002600081819054906101000a900461ffff168092919060010191906101000a81548161ffff021916908361ffff160217905550506108d7610fe4565b608060405190810160405280600260009054906101000a900461ffff1661ffff16815260200184815260200183815260200142815250905080600080600260009054906101000a900461ffff1661ffff1661ffff16815260200190815260200160002060008201518160000160006101000a81548161ffff021916908361ffff1602179055506020820151816001019080519060200190610979929190611011565b506040820151816002019080519060200190610996929190611011565b50606082015181600301559050507f143a7badea0ec5673064f1eb1154d0215847d214ca4915b638ad2cb064927c59600080600260009054906101000a900461ffff1661ffff1661ffff16815260200190815260200160002060000160009054906101000a900461ffff16600080600260009054906101000a900461ffff1661ffff1661ffff168152602001908152602001600020600101600080600260009054906101000a900461ffff1661ffff1661ffff168152602001908152602001600020600201600080600260009054906101000a900461ffff1661ffff1661ffff16815260200190815260200160002060030154604051808561ffff1661ffff1681526020018060200180602001848152602001838103835286818154600181600116156101000203166002900481526020019150805460018160011615610100020316600290048015610b2a5780601f10610aff57610100808354040283529160200191610b2a565b820191906000526020600020905b815481529060010190602001808311610b0d57829003601f168201915b5050838103825285818154600181600116156101000203166002900481526020019150805460018160011615610100020316600290048015610bad5780601f10610b8257610100808354040283529160200191610bad565b820191906000526020600020905b815481529060010190602001808311610b9057829003601f168201915b5050965050505050505060405180910390a1505050565b600160003373ffffffffffffffffffffffffffffffffffffffff1673ffffffffffffffffffffffffffffffffffffffff16815260200190815260200160002060009054906101000a900460ff161515610c1c57600080fd5b426003546000808661ffff1661ffff1681526020019081526020016000206003015401111515610c4b57600080fd5b816000808561ffff1661ffff1681526020019081526020016000206001019080519060200190610c7c929190611091565b50806000808561ffff1661ffff1681526020019081526020016000206002019080519060200190610cae929190611091565b50505050565b60006020528060005260406000206000915090508060000160009054906101000a900461ffff1690806001018054600181600116156101000203166002900480601f016020809104026020016040519081016040528092919081815260200182805460018160011615610100020316600290048015610d745780601f10610d4957610100808354040283529160200191610d74565b820191906000526020600020905b815481529060010190602001808311610d5757829003601f168201915b505050505090806002018054600181600116156101000203166002900480601f016020809104026020016040519081016040528092919081815260200182805460018160011615610100020316600290048015610e125780601f10610de757610100808354040283529160200191610e12565b820191906000526020600020905b815481529060010190602001808311610df557829003601f168201915b5050505050908060030154905084565b6000606080610e2f610fe4565b6000808661ffff1661ffff168152602001908152602001600020608060405190810160405290816000820160009054906101000a900461ffff1661ffff1661ffff168152602001600182018054600181600116156101000203166002900480601f016020809104026020016040519081016040528092919081815260200182805460018160011615610100020316600290048015610f0e5780601f10610ee357610100808354040283529160200191610f0e565b820191906000526020600020905b815481529060010190602001808311610ef157829003601f168201915b50505050508152602001600282018054600181600116156101000203166002900480601f016020809104026020016040519081016040528092919081815260200182805460018160011615610100020316600290048015610fb05780601f10610f8557610100808354040283529160200191610fb0565b820191906000526020600020905b815481529060010190602001808311610f9357829003601f168201915b5050505050815260200160038201548152505090508481602001518260400151819150809050935093509350509193909250565b608060405190810160405280600061ffff1681526020016060815260200160608152602001600081525090565b828054600181600116156101000203166002900490600052602060002090601f016020900481019282601f1061105257805160ff1916838001178555611080565b82800160010185558215611080579182015b8281111561107f578251825591602001919060010190611064565b5b50905061108d9190611111565b5090565b828054600181600116156101000203166002900490600052602060002090601f016020900481019282601f106110d257805160ff1916838001178555611100565b82800160010185558215611100579182015b828111156110ff5782518255916020019190600101906110e4565b5b50905061110d9190611111565b5090565b61113391905b8082111561112f576000816000905550600101611117565b5090565b9056fea165627a7a723058202a73c0f542d5bc9a687645e56c4a8c9222f92302c57801dd8cb779f805c3e9ba0029",
  "source": "pragma solidity ^0.5.0;\n\n/** \n  * @title Remember Jeju 4.3 Tragedy \n  * @author Sooyoung Hyun\n  * @notice You can use this contract to create online memorial database based on smart contracts.\n  * @dev For more implementation details read the \"README.md\" document. \n  */\ncontract Remember43 {\n    \n    mapping(uint16 => Victim) public victims;\n    mapping(address => bool) public isContributor;\n    \n    uint16 public victimsCount;\n    address owner;\n    uint timeout;\n    \n    modifier onlyOwner {\n        require(owner == msg.sender);\n        _;\n    }\n    \n    modifier onlyContributor {\n        require(isContributor[msg.sender]);\n        _;\n    }\n    \n    struct Victim {\n        uint16 idx;\n        string name;\n        string addr;\n        uint createTime;\n    }\n    \n    event contributorSet(address indexed contributor, bool state);\n    event victimAdded(uint16 idx, string name, string addr, uint createTime);\n\n    constructor(uint _timeout) public {\n        owner = msg.sender;\n        timeout = _timeout;\n    }\n    \n    /**\n      * @notice Set contributor's state true or false.\n      * @dev Only owner can use this function to change contributor's state. \n      * @param _addr User address for updating state.\n      * @param _state True or false for updating state.\n      */\n    function setContributor(address _addr, bool _state) onlyOwner public {\n        isContributor[_addr] = _state;\n        emit contributorSet(_addr, isContributor[_addr]);\n    }\n    \n    /**\n      * @notice Add victim to storage.\n      * @dev Only owner and contributor can use this function to add victim to storage.\n      * @param _name Name of victim.\n      * @param _addr Local address of victim.\n      */\n    function addVictim(string memory _name, string memory _addr) onlyContributor public {\n        victimsCount++;\n        Victim memory vt = Victim(victimsCount, _name, _addr, now);\n        victims[victimsCount] = vt;\n        emit victimAdded(victims[victimsCount].idx, victims[victimsCount].name, victims[victimsCount].addr, victims[victimsCount].createTime);\n    }\n    \n    /**\n      * @notice Get victim infomation.\n      * @dev Function used in frontend to get the user infomation.\n      * @param _idx Request index for providing infomation.  \n      * @return _idx User index of requests.\n      * @return vt.name User name of requests.\n      * @return vt.addr User local address of requests.\n      */\n    function getVictim(uint16 _idx) public view returns(uint16, string memory, string memory) {\n        Victim memory vt = victims[_idx]; \n        return (_idx, vt.name, vt.addr); \n    }\n    \n    /**\n      * @notice Modify victim infomation.\n      * @dev Only owner and contributor can use this function to modify victim infomation.\n      * @dev It can be modified only within the time limit.\n      * @param _idx Index of victim.\n      * @param _name Name of victim.\n      * @param _addr Local address of victim.\n      */\n    function modifyVictim(uint16 _idx, string memory _name, string memory _addr) onlyContributor public {\n        require(victims[_idx].createTime + timeout > now);\n        victims[_idx].name = _name;\n        victims[_idx].addr = _addr;\n    }\n}\n",
  "sourcePath": "C:/Users/sooyoung/Desktop/remember43/contracts/Remember43.sol",
  "compiler": {
    "name": "solc",
    "version": "0.5.0+commit.1d4f565a.Emscripten.clang"
  },
  "schemaVersion": "3.0.0",
  "updatedAt": "2019-03-22T08:25:51.711Z",
  "devdoc": {
    "author": "Sooyoung Hyun",
    "details": "For more implementation details read the \"README.md\" document. ",
    "methods": {
      "addVictim(string,string)": {
        "details": "Only owner and contributor can use this function to add victim to storage.",
        "params": {
          "_addr": "Local address of victim.",
          "_name": "Name of victim."
        }
      },
      "getVictim(uint16)": {
        "details": "Function used in frontend to get the user infomation.",
        "params": {
          "_idx": "Request index for providing infomation.  "
        },
        "return": "_idx User index of requests.vt.name User name of requests.vt.addr User local address of requests."
      },
      "modifyVictim(uint16,string,string)": {
        "details": "Only owner and contributor can use this function to modify victim infomation.It can be modified only within the time limit.",
        "params": {
          "_addr": "Local address of victim.",
          "_idx": "Index of victim.",
          "_name": "Name of victim."
        }
      },
      "setContributor(address,bool)": {
        "details": "Only owner can use this function to change contributor's state. ",
        "params": {
          "_addr": "User address for updating state.",
          "_state": "True or false for updating state."
        }
      }
    },
    "title": "Remember Jeju 4.3 Tragedy "
  },
  "userdoc": {
    "methods": {
      "addVictim(string,string)": {
        "notice": "Add victim to storage."
      },
      "getVictim(uint16)": {
        "notice": "Get victim infomation."
      },
      "modifyVictim(uint16,string,string)": {
        "notice": "Modify victim infomation."
      },
      "setContributor(address,bool)": {
        "notice": "Set contributor's state true or false."
      }
    },
    "notice": "You can use this contract to create online memorial database based on smart contracts."
  }
}